{
  "address": "0x0a66A922C463d0c66ce36718f88144253FA8EcDc",
  "abi": [
    {
      "inputs": [
        {
          "internalType": "uint256",
          "name": "_lockTime",
          "type": "uint256"
        },
        {
          "internalType": "address",
          "name": "_dataFeedAddr",
          "type": "address"
        }
      ],
      "stateMutability": "nonpayable",
      "type": "constructor"
    },
    {
      "inputs": [],
      "name": "fund",
      "outputs": [],
      "stateMutability": "payable",
      "type": "function"
    },
    {
      "inputs": [
        {
          "internalType": "address",
          "name": "",
          "type": "address"
        }
      ],
      "name": "fundersToAmount",
      "outputs": [
        {
          "internalType": "uint256",
          "name": "",
          "type": "uint256"
        }
      ],
      "stateMutability": "view",
      "type": "function"
    },
    {
      "inputs": [],
      "name": "getChainlinkDataFeedLatestAnswer",
      "outputs": [
        {
          "internalType": "int256",
          "name": "",
          "type": "int256"
        }
      ],
      "stateMutability": "view",
      "type": "function"
    },
    {
      "inputs": [],
      "name": "getFund",
      "outputs": [],
      "stateMutability": "nonpayable",
      "type": "function"
    },
    {
      "inputs": [],
      "name": "getFundSuccess",
      "outputs": [
        {
          "internalType": "bool",
          "name": "",
          "type": "bool"
        }
      ],
      "stateMutability": "view",
      "type": "function"
    },
    {
      "inputs": [],
      "name": "owner",
      "outputs": [
        {
          "internalType": "address",
          "name": "",
          "type": "address"
        }
      ],
      "stateMutability": "view",
      "type": "function"
    },
    {
      "inputs": [],
      "name": "refund",
      "outputs": [],
      "stateMutability": "nonpayable",
      "type": "function"
    },
    {
      "inputs": [
        {
          "internalType": "address",
          "name": "_erc20Addr",
          "type": "address"
        }
      ],
      "name": "setErc20Addr",
      "outputs": [],
      "stateMutability": "nonpayable",
      "type": "function"
    },
    {
      "inputs": [
        {
          "internalType": "address",
          "name": "funder",
          "type": "address"
        },
        {
          "internalType": "uint256",
          "name": "amountToUpdate",
          "type": "uint256"
        }
      ],
      "name": "setFunderToAmount",
      "outputs": [],
      "stateMutability": "nonpayable",
      "type": "function"
    },
    {
      "inputs": [
        {
          "internalType": "address",
          "name": "newOwner",
          "type": "address"
        }
      ],
      "name": "transferOwnership",
      "outputs": [],
      "stateMutability": "nonpayable",
      "type": "function"
    }
  ],
  "transactionHash": "0x4fdc3969568ab0969ea7332ed35caa80bc0ddeb17d4740aa20e739f7691210b7",
  "args": [
    300,
    "0x694AA1769357215DE4FAC081bf1f309aDC325306"
  ],
  "numDeployments": 1,
  "solcInputHash": "85a4ab1af9b25a41cccc642eb77f1bab",
  "bytecode": "0x608060405268056bc75e2d6310000060015534801561001d57600080fd5b50604051611554380380611554833981810160405281019061003f919061016f565b80600260006101000a81548173ffffffffffffffffffffffffffffffffffffffff021916908373ffffffffffffffffffffffffffffffffffffffff16021790555033600560006101000a81548173ffffffffffffffffffffffffffffffffffffffff021916908373ffffffffffffffffffffffffffffffffffffffff160217905550426003819055508160048190555050506101af565b600080fd5b6000819050919050565b6100ee816100db565b81146100f957600080fd5b50565b60008151905061010b816100e5565b92915050565b600073ffffffffffffffffffffffffffffffffffffffff82169050919050565b600061013c82610111565b9050919050565b61014c81610131565b811461015757600080fd5b50565b60008151905061016981610143565b92915050565b60008060408385031215610186576101856100d6565b5b6000610194858286016100fc565b92505060206101a58582860161015a565b9150509250929050565b611396806101be6000396000f3fe6080604052600436106100915760003560e01c8063b60d428811610059578063b60d428814610155578063bea4dfb51461015f578063d39cf0061461018a578063da4658e0146101b3578063f2fde38b146101de57610091565b806313ffff0114610096578063590e1ae3146100bf5780638da5cb5b146100d65780638edd6eb6146101015780639f883a0514610118575b600080fd5b3480156100a257600080fd5b506100bd60048036038101906100b89190610b8d565b610207565b005b3480156100cb57600080fd5b506100d46102db565b005b3480156100e257600080fd5b506100eb610534565b6040516100f89190610bc9565b60405180910390f35b34801561010d57600080fd5b5061011661055a565b005b34801561012457600080fd5b5061013f600480360381019061013a9190610b8d565b6107a0565b60405161014c9190610bfd565b60405180910390f35b61015d6107b8565b005b34801561016b57600080fd5b5061017461089b565b6040516101819190610c31565b60405180910390f35b34801561019657600080fd5b506101b160048036038101906101ac9190610c78565b61093c565b005b3480156101bf57600080fd5b506101c8610a13565b6040516101d59190610cd3565b60405180910390f35b3480156101ea57600080fd5b5061020560048036038101906102009190610b8d565b610a26565b005b600560009054906101000a900473ffffffffffffffffffffffffffffffffffffffff1673ffffffffffffffffffffffffffffffffffffffff163373ffffffffffffffffffffffffffffffffffffffff1614610297576040517f08c379a000000000000000000000000000000000000000000000000000000000815260040161028e90610d71565b60405180910390fd5b80600660006101000a81548173ffffffffffffffffffffffffffffffffffffffff021916908373ffffffffffffffffffffffffffffffffffffffff16021790555050565b6004546003546102eb9190610dc0565b42101561032d576040517f08c379a000000000000000000000000000000000000000000000000000000000815260040161032490610e40565b60405180910390fd5b683635c9adc5dea0000061034047610afa565b10610380576040517f08c379a000000000000000000000000000000000000000000000000000000000815260040161037790610eac565b60405180910390fd5b60008060003373ffffffffffffffffffffffffffffffffffffffff1673ffffffffffffffffffffffffffffffffffffffff1681526020019081526020016000205403610401576040517f08c379a00000000000000000000000000000000000000000000000000000000081526004016103f890610f18565b60405180910390fd5b60003373ffffffffffffffffffffffffffffffffffffffff166000803373ffffffffffffffffffffffffffffffffffffffff1673ffffffffffffffffffffffffffffffffffffffff1681526020019081526020016000205460405161046590610f69565b60006040518083038185875af1925050503d80600081146104a2576040519150601f19603f3d011682016040523d82523d6000602084013e6104a7565b606091505b505080915050806104ed576040517f08c379a00000000000000000000000000000000000000000000000000000000081526004016104e490610fca565b60405180910390fd5b60008060003373ffffffffffffffffffffffffffffffffffffffff1673ffffffffffffffffffffffffffffffffffffffff1681526020019081526020016000208190555050565b600560009054906101000a900473ffffffffffffffffffffffffffffffffffffffff1681565b60045460035461056a9190610dc0565b4210156105ac576040517f08c379a00000000000000000000000000000000000000000000000000000000081526004016105a390610e40565b60405180910390fd5b600560009054906101000a900473ffffffffffffffffffffffffffffffffffffffff1673ffffffffffffffffffffffffffffffffffffffff163373ffffffffffffffffffffffffffffffffffffffff161461063c576040517f08c379a000000000000000000000000000000000000000000000000000000000815260040161063390610d71565b60405180910390fd5b683635c9adc5dea0000061064f47610afa565b1015610690576040517f08c379a000000000000000000000000000000000000000000000000000000000815260040161068790611036565b60405180910390fd5b60003373ffffffffffffffffffffffffffffffffffffffff16476040516106b690610f69565b60006040518083038185875af1925050503d80600081146106f3576040519150601f19603f3d011682016040523d82523d6000602084013e6106f8565b606091505b5050809150508061073e576040517f08c379a000000000000000000000000000000000000000000000000000000000815260040161073590610fca565b60405180910390fd5b60008060003373ffffffffffffffffffffffffffffffffffffffff1673ffffffffffffffffffffffffffffffffffffffff168152602001908152602001600020819055506001600660146101000a81548160ff02191690831515021790555050565b60006020528060005260406000206000915090505481565b6001546107c434610afa565b1015610805576040517f08c379a00000000000000000000000000000000000000000000000000000000081526004016107fc906110a2565b60405180910390fd5b6004546003546108159190610dc0565b4210610856576040517f08c379a000000000000000000000000000000000000000000000000000000000815260040161084d9061110e565b60405180910390fd5b346000803373ffffffffffffffffffffffffffffffffffffffff1673ffffffffffffffffffffffffffffffffffffffff16815260200190815260200160002081905550565b600080600260009054906101000a900473ffffffffffffffffffffffffffffffffffffffff1673ffffffffffffffffffffffffffffffffffffffff1663feaf968c6040518163ffffffff1660e01b815260040160a060405180830381865afa15801561090b573d6000803e3d6000fd5b505050506040513d601f19601f8201168201806040525081019061092f91906111b1565b5050509150508091505090565b600660009054906101000a900473ffffffffffffffffffffffffffffffffffffffff1673ffffffffffffffffffffffffffffffffffffffff163373ffffffffffffffffffffffffffffffffffffffff16146109cc576040517f08c379a00000000000000000000000000000000000000000000000000000000081526004016109c39061129e565b60405180910390fd5b806000808473ffffffffffffffffffffffffffffffffffffffff1673ffffffffffffffffffffffffffffffffffffffff168152602001908152602001600020819055505050565b600660149054906101000a900460ff1681565b600560009054906101000a900473ffffffffffffffffffffffffffffffffffffffff1673ffffffffffffffffffffffffffffffffffffffff163373ffffffffffffffffffffffffffffffffffffffff1614610ab6576040517f08c379a0000000000000000000000000000000000000000000000000000000008152600401610aad90610d71565b60405180910390fd5b80600560006101000a81548173ffffffffffffffffffffffffffffffffffffffff021916908373ffffffffffffffffffffffffffffffffffffffff16021790555050565b600080610b0561089b565b90506305f5e1008184610b1891906112be565b610b22919061132f565b915050919050565b600080fd5b600073ffffffffffffffffffffffffffffffffffffffff82169050919050565b6000610b5a82610b2f565b9050919050565b610b6a81610b4f565b8114610b7557600080fd5b50565b600081359050610b8781610b61565b92915050565b600060208284031215610ba357610ba2610b2a565b5b6000610bb184828501610b78565b91505092915050565b610bc381610b4f565b82525050565b6000602082019050610bde6000830184610bba565b92915050565b6000819050919050565b610bf781610be4565b82525050565b6000602082019050610c126000830184610bee565b92915050565b6000819050919050565b610c2b81610c18565b82525050565b6000602082019050610c466000830184610c22565b92915050565b610c5581610be4565b8114610c6057600080fd5b50565b600081359050610c7281610c4c565b92915050565b60008060408385031215610c8f57610c8e610b2a565b5b6000610c9d85828601610b78565b9250506020610cae85828601610c63565b9150509250929050565b60008115159050919050565b610ccd81610cb8565b82525050565b6000602082019050610ce86000830184610cc4565b92915050565b600082825260208201905092915050565b7f746869732066756e6374696f6e2063616e206f6e6c792062652063616c6c656460008201527f206279206f776e65720000000000000000000000000000000000000000000000602082015250565b6000610d5b602983610cee565b9150610d6682610cff565b604082019050919050565b60006020820190508181036000830152610d8a81610d4e565b9050919050565b7f4e487b7100000000000000000000000000000000000000000000000000000000600052601160045260246000fd5b6000610dcb82610be4565b9150610dd683610be4565b9250828201905080821115610dee57610ded610d91565b5b92915050565b7f77696e646f77206973206e6f7420636c6f736564000000000000000000000000600082015250565b6000610e2a601483610cee565b9150610e3582610df4565b602082019050919050565b60006020820190508181036000830152610e5981610e1d565b9050919050565b7f7461726765742069732072656163686564000000000000000000000000000000600082015250565b6000610e96601183610cee565b9150610ea182610e60565b602082019050919050565b60006020820190508181036000830152610ec581610e89565b9050919050565b7f7468657265206973206e6f2066756e6420666f7220796f750000000000000000600082015250565b6000610f02601883610cee565b9150610f0d82610ecc565b602082019050919050565b60006020820190508181036000830152610f3181610ef5565b9050919050565b600081905092915050565b50565b6000610f53600083610f38565b9150610f5e82610f43565b600082019050919050565b6000610f7482610f46565b9150819050919050565b7f7472616e73666572207478206661696c65640000000000000000000000000000600082015250565b6000610fb4601283610cee565b9150610fbf82610f7e565b602082019050919050565b60006020820190508181036000830152610fe381610fa7565b9050919050565b7f746172676574206973206e6f7420726561636865640000000000000000000000600082015250565b6000611020601583610cee565b915061102b82610fea565b602082019050919050565b6000602082019050818103600083015261104f81611013565b9050919050565b7fe99c80e8a681e69bb4e5a49ae79a846574680000000000000000000000000000600082015250565b600061108c601283610cee565b915061109782611056565b602082019050919050565b600060208201905081810360008301526110bb8161107f565b9050919050565b7f77696e646f7720697320636c6f73656400000000000000000000000000000000600082015250565b60006110f8601083610cee565b9150611103826110c2565b602082019050919050565b60006020820190508181036000830152611127816110eb565b9050919050565b600069ffffffffffffffffffff82169050919050565b61114d8161112e565b811461115857600080fd5b50565b60008151905061116a81611144565b92915050565b61117981610c18565b811461118457600080fd5b50565b60008151905061119681611170565b92915050565b6000815190506111ab81610c4c565b92915050565b600080600080600060a086880312156111cd576111cc610b2a565b5b60006111db8882890161115b565b95505060206111ec88828901611187565b94505060406111fd8882890161119c565b935050606061120e8882890161119c565b925050608061121f8882890161115b565b9150509295509295909350565b7f796f7520646f206e6f742068617665207065726d697373696f6e20746f20636160008201527f6c6c20746869732066756e6374696f6e00000000000000000000000000000000602082015250565b6000611288603083610cee565b91506112938261122c565b604082019050919050565b600060208201905081810360008301526112b78161127b565b9050919050565b60006112c982610be4565b91506112d483610be4565b92508282026112e281610be4565b915082820484148315176112f9576112f8610d91565b5b5092915050565b7f4e487b7100000000000000000000000000000000000000000000000000000000600052601260045260246000fd5b600061133a82610be4565b915061134583610be4565b92508261135557611354611300565b5b82820490509291505056fea2646970667358221220c6a8d44cc3e0a13c2a27a7e645e1841a64787fb8123f8bb844216846ea79bc4f64736f6c634300081c0033",
  "devdoc": {
    "kind": "dev",
    "methods": {},
    "version": 1
  },
  "userdoc": {
    "kind": "user",
    "methods": {
      "getChainlinkDataFeedLatestAnswer()": {
        "notice": "Returns the latest answer."
      }
    },
    "version": 1
  },
  "storageLayout": {
    "storage": [
      {
        "astId": 53,
        "contract": "contracts/FundMe.sol:FundMe",
        "label": "fundersToAmount",
        "offset": 0,
        "slot": "0",
        "type": "t_mapping(t_address,t_uint256)"
      },
      {
        "astId": 60,
        "contract": "contracts/FundMe.sol:FundMe",
        "label": "MINIMUM_VALUE",
        "offset": 0,
        "slot": "1",
        "type": "t_uint256"
      },
      {
        "astId": 63,
        "contract": "contracts/FundMe.sol:FundMe",
        "label": "dataFeed",
        "offset": 0,
        "slot": "2",
        "type": "t_contract(AggregatorV3Interface)45"
      },
      {
        "astId": 72,
        "contract": "contracts/FundMe.sol:FundMe",
        "label": "deploymentTimestamp",
        "offset": 0,
        "slot": "3",
        "type": "t_uint256"
      },
      {
        "astId": 74,
        "contract": "contracts/FundMe.sol:FundMe",
        "label": "lockTime",
        "offset": 0,
        "slot": "4",
        "type": "t_uint256"
      },
      {
        "astId": 76,
        "contract": "contracts/FundMe.sol:FundMe",
        "label": "owner",
        "offset": 0,
        "slot": "5",
        "type": "t_address"
      },
      {
        "astId": 78,
        "contract": "contracts/FundMe.sol:FundMe",
        "label": "erc20Addr",
        "offset": 0,
        "slot": "6",
        "type": "t_address"
      },
      {
        "astId": 80,
        "contract": "contracts/FundMe.sol:FundMe",
        "label": "getFundSuccess",
        "offset": 20,
        "slot": "6",
        "type": "t_bool"
      }
    ],
    "types": {
      "t_address": {
        "encoding": "inplace",
        "label": "address",
        "numberOfBytes": "20"
      },
      "t_bool": {
        "encoding": "inplace",
        "label": "bool",
        "numberOfBytes": "1"
      },
      "t_contract(AggregatorV3Interface)45": {
        "encoding": "inplace",
        "label": "contract AggregatorV3Interface",
        "numberOfBytes": "20"
      },
      "t_mapping(t_address,t_uint256)": {
        "encoding": "mapping",
        "key": "t_address",
        "label": "mapping(address => uint256)",
        "numberOfBytes": "32",
        "value": "t_uint256"
      },
      "t_uint256": {
        "encoding": "inplace",
        "label": "uint256",
        "numberOfBytes": "32"
      }
    }
  }
}